:100000000C945D000C9485000C9485000C94850084
:100010000C9485000C9485000C9485000C9485004C
:100020000C9485000C9485000C9485000C94E104DC
:100030000C9485000C9485000C9485000C9485002C
:100040000C9497040C9485000C9465040C943F0464
:100050000C9485000C9485000C9485000C9485000C
:100060000C9485000C94850000000008000201003B
:100070000003040700000000000000000000000072
:10008000250028002B0000000000240027002A0083
:10009000040404040404040402020202020203032E
:1000A0000303030301020408102040800102040836
:1000B00010200102040810209D0511241FBECFEF5F
:1000C000D8E0DEBFCDBF11E0A0E0B1E0E2E4F0E1B6
:1000D00002C005900D92A438B107D9F722E0A4E838
:1000E000B1E001C01D92AE36B207E1F710E0CDE5F8
:1000F000D0E004C02197FE010E941908CC35D10739
:10010000C9F70E9427060C941F080C94000090E089
:10011000FC01EC55FF4F249180579F4FFC018491C7
:10012000882399F090E0880F991FFC01EA57FF4F50
:10013000A591B491FC01E458FF4F859194918FB73C
:10014000F894EC91E22BEC938FBF0895CF92DF925D
:10015000EF92FF92DC01A03282E0B807D4F5A53B14
:10016000B10514F0A4EBB0E04091540228E830E06F
:10017000241B310947FD3395220F331F220F331FF4
:100180006901330FEE08FF084091550228E532E07F
:10019000241B310947FD3395220F331F220F331FD4
:1001A000032E000C440B550B2C193D094E095F0919
:1001B000B7FF02C0B0E0A0E00E94D40724EB30E01B
:1001C00040E050E00E94AA07C20ED31EE41EF51EB6
:1001D000D601E0915302EC3080F52091540288E87A
:1001E00090E0821B910927FD9395880F991F880F36
:1001F000991FA817B90784F02091550288E592E06D
:10020000821B910927FD9395880F991F880F991FCD
:10021000A817B9070CF4CD010297880F991F4FB7A3
:10022000F8942E2F30E0F901EE0FFF1FE20FF31FBD
:10023000E25DFD4F928381834FBFFF90EF90DF908F
:10024000CF900895AF92BF92CF92DF92EF92FF923C
:100250000F931F93CF93DF936C017B018B01040FEE
:10026000151FEB015E01AE18BF08C017D10759F08A
:100270006991D601ED91FC910190F081E02DC601CC
:100280000995892B79F7C501DF91CF911F910F91C6
:10029000FF90EF90DF90CF90BF90AF900895FC015A
:1002A000538D448D252F30E0842F90E0821B930BDB
:1002B000541710F0CF96089501970895FC01918D81
:1002C000828D981761F0A28DAE0FBF2FB11D5D9684
:1002D0008C91928D9F5F9F73928F90E008958FEF26
:1002E0009FEF0895FC01918D828D981731F0828DDA
:1002F000E80FF11D858D90E008958FEF9FEF089531
:10030000FC01918D228D892F90E0805C9F4F821B94
:1003100091098F739927089581E991E00E948001E6
:1003200021E0892B09F420E0822F089580E090E0FD
:10033000892B29F00E948C0181110C9400000895F2
:10034000FC01A48DA80FB92FB11DA35ABF4F2C914A
:10035000848D90E001968F739927848FA689B78941
:100360002C93A089B1898C91837080648C93938D38
:10037000848D981306C00288F389E02D80818F7DDB
:1003800080830895EF92FF920F931F93CF93DF9393
:10039000EC0181E0888F9B8D8C8D98131AC0E889C1
:1003A000F989808185FF15C09FB7F894EE89FF8990
:1003B0006083E889F98980818370806480839FBF2E
:1003C00081E090E0DF91CF911F910F91FF90EF902E
:1003D0000895F62E0B8D10E00F5F1F4F0F7311273E
:1003E000E02E8C8D8E110CC00FB607FCFACFE88979
:1003F000F989808185FFF5CFCE010E94A001F1CF60
:10040000EB8DEC0FFD2FF11DE35AFF4FF0829FB7EC
:10041000F8940B8FEA89FB8980818062CFCFCF93DC
:10042000DF93EC01888D8823B9F0AA89BB89E8891C
:10043000F9898C9185FD03C0808186FD0DC00FB6C2
:1004400007FCF7CF8C9185FFF2CF808185FFEDCF40
:10045000CE010E94A001E9CFDF91CF91089590E0F5
:10046000FC01E859FF4F2491FC01EC55FF4F3491FA
:10047000FC01E057FF4FE491EE23C9F0222339F04D
:10048000233001F1A8F4213019F1223029F1F0E0F4
:10049000EE0FFF1FE458FF4FA591B4918FB7F8946A
:1004A000EC91611126C030953E233C938FBF089597
:1004B0002730A9F02830C9F0243049F78091800016
:1004C0008F7D03C0809180008F7780938000DFCF85
:1004D00084B58F7784BDDBCF84B58F7DFBCF8091D2
:1004E000B0008F778093B000D2CF8091B0008F7D25
:1004F000F9CF3E2BDACF3FB7F89480918A019091E3
:100500008B01A0918C01B0918D0126B5A89B05C0EF
:100510002F3F19F00196A11DB11D3FBFBA2FA92F82
:10052000982F8827BC01CD01620F711D811D911D7F
:1005300042E0660F771F881F991F4A95D1F70895EB
:100540008F929F92AF92BF92CF92DF92EF92FF92E3
:100550004B015C010E947B026B017C010E947B02CB
:100560006C197D098E099F09683E734081059105CC
:10057000A8F321E0821A9108A108B10888EEC80EFC
:1005800083E0D81EE11CF11C81149104A104B10484
:1005900029F7FF90EF90DF90CF90BF90AF909F90A2
:1005A0008F900895089590E080E00895FB010190F8
:1005B0000020E9F73197AF01461B570BDC01ED91A5
:1005C000FC910280F381E02D0994CF93DF93BC016D
:1005D00081E991E00E94D602EC016EE171E081E9CF
:1005E00091E00E94D6028C0F9D1FDF91CF9108955C
:1005F000CF93DF93EC0160E08E810E942F0261E0D7
:100600008E810E942F0260E08E810E942F028BE873
:1006100091E00197F1F7DF91CF910895CF92DF92AA
:10062000EF92FF920F931F93CF93DF936C017C01A6
:1006300087E0E80EF11CD0E0C0E0062F10E0B80122
:100640000C2E02C0759567950A94E2F76170F70168
:1006500081917F010E942F022196C430D10579F744
:10066000C601DF91CF911F910F91FF90EF90DF9026
:10067000CF900C94F802CF92DF92EF92FF920F93FB
:100680001F93CF93DF93EC01F62E642F8C810E9491
:100690002F028D818F3F19F060E00E942F020F2DF5
:1006A00010E08F8584FF25C06E0187E0C80ED11C45
:1006B000F12CE12CB8010E2C02C0759567950A94B7
:1006C000E2F76170F60181916F010E942F02FFEF46
:1006D000EF1AFF0A88E0E816F10461F7CE01DF9116
:1006E000CF911F910F91FF90EF90DF90CF900C94DE
:1006F000F802B80184E0759567958A95E1F7CE0117
:100700000E940E036F2DCE01DF91CF911F910F91AB
:10071000FF90EF90DF90CF900C940E0340E0682F95
:1007200086E592E00C943B0381E00E948E038BE30C
:100730009FE10197F1F70895CF93DF93823029F479
:10074000909165029860909365028093690210927F
:100750006A0280E480936B0280E180936C0280E502
:1007600080936D0280915A020E94870080915B0203
:100770008F3F11F00E94870080915C020E948700E9
:10078000C6E5D2E09E01265532408091650284FD87
:100790000AC084E090E02196281739073CF48E8146
:1007A0000E948700EFCF88E090E0F5CF8BE39DE0DB
:1007B0000197F1F760E080915A020E942F0260E0F9
:1007C00080915C020E942F0280915B028F3F19F0A2
:1007D00060E00E942F028091650284FD34C063E0D6
:1007E00086E592E00E940E03CBE4D6E4CE010197A9
:1007F000F1F763E086E592E00E940E032197F1F79E
:1008000063E086E592E00E940E0383E592E00197A3
:10081000F1F762E086E592E00E940E0380916502A6
:1008200080620E948E0384E0809366028CE00E94C6
:100830008E030E94940382E08093670286E0DF913A
:10084000CF910C948E0380620E948E038BE496E419
:100850000197F1F78091650280620E948E0383E523
:1008600092E00197F1F78091650280620E948E0309
:10087000D5CF41E00E943B0381E090E008951F92B4
:100880000F920FB60F9211242F933F934F935F93C4
:100890006F937F938F939F93AF93BF93EF93FF9348
:1008A00081E991E00E94A001FF91EF91BF91AF918A
:1008B0009F918F917F916F915F914F913F912F9178
:1008C0000F900FBE0F901F9018951F920F920FB6AA
:1008D0000F9211242F938F939F93EF93FF93E091A7
:1008E000A101F091A2018081E091A701F091A801FE
:1008F00082FD1BC090818091AA018F5F8F73209130
:10090000AB01821741F0E091AA01F0E0EF56FE4FF3
:10091000958F8093AA01FF91EF919F918F912F91D5
:100920000F900FBE0F901F9018958081F4CF1F92EB
:100930000F920FB60F9211242F933F938F939F9393
:10094000AF93BF938091860190918701A091880118
:10095000B09189013091850123E0230F2D3758F59F
:100960000196A11DB11D209385018093860190936E
:100970008701A0938801B093890180918A019091A9
:100980008B01A0918C01B0918D010196A11DB11D2B
:1009900080938A0190938B01A0938C01B0938D0179
:1009A000BF91AF919F918F913F912F910F900FBE6B
:1009B0000F901F90189526E8230F0296A11DB11DD8
:1009C000D2CF1F920F920FB60F9211242F933F9305
:1009D0004F935F936F937F938F939F93AF93BF9347
:1009E000CF93DF93EF93FF9380918401C0915202E4
:1009F000D0E087FF24C0109285001092840080917F
:100A000084018F5F8093840180918401082E000C03
:100A1000990B8C179D0724F4809184018C30C4F1CC
:100A20008091840090918500049680349C4908F45C
:100A30007AC08091840090918500049676C0809160
:100A40008401082E000C990B8C179D07C4F6E091C9
:100A500084018E2FEE0F990BFC01EE0FFF1FE80FA4
:100A6000F91FE25DFD4F808186FFC9CFE0918401CF
:100A70008E2FEE0F990BFC01EE0FFF1FE80FF91FF1
:100A8000E25DFD4F808160E08F730E942F02B7CF3F
:100A90002091840030918500E09184018E2FEE0F2B
:100AA000990BFC01EE0FFF1FE80FF91FE25DFD4FF0
:100AB00081819281820F931F909389008093880097
:100AC000E09184018E2FEE0F990BFC01EE0FFF1FBA
:100AD000E80FF91FE25DFD4F808186FF11C0E091B4
:100AE00084018E2FEE0F990BFC01EE0FFF1FE80F14
:100AF000F91FE25DFD4F808161E08F730E942F023C
:100B0000FF91EF91DF91CF91BF91AF919F918F9125
:100B10007F916F915F914F913F912F910F900FBEF9
:100B20000F901F90189580E49CE990938900809322
:100B300088008FEF80938401E3CFCF9310929401CC
:100B40001092930188EE93E0A0E0B0E080939501CD
:100B500090939601A0939701B093980184E091E05F
:100B6000909392018093910185EC90E090939E0187
:100B700080939D0184EC90E09093A00180939F016D
:100B800080EC90E09093A2018093A10181EC90E031
:100B90009093A4018093A30182EC90E09093A6012E
:100BA0008093A50186EC90E09093A8018093A70123
:100BB0001092AA011092AB011092AC011092AD01FB
:100BC000109259021092580286E191E090935702D8
:100BD000809356028CE080935A02CFEFC0935B0261
:100BE0008BE080935C0287E080935D0286E08093D7
:100BF0005E0285E080935F0284E080936002109241
:100C000061021092620210926302109264021092CA
:100C1000650281E00E949C03809152028C30A0F416
:100C200091E0980F909352028093530290E0FC0160
:100C3000EE0FFF1FE80FF91FE25DFD4F88EB9BE011
:100C400092838183CF910895C0935302FBCF789410
:100C500084B5826084BD84B5816084BD85B58260C1
:100C600085BD85B5816085BD80916E008160809372
:100C70006E001092810080918100826080938100DB
:100C800080918100816080938100809180008160EB
:100C9000809380008091B10084608093B100809146
:100CA000B00081608093B00080917A00846080936E
:100CB0007A0080917A00826080937A0080917A0035
:100CC000816080937A0080917A00806880937A00B6
:100CD0001092C10080E291E0F82E80939001E091A3
:100CE000A101F091A20182E08083E0919D01F09149
:100CF0009E011082E0919F01F091A0018FEC808312
:100D00001092A901E091A501F091A60186E08083EF
:100D1000E091A301F091A401808180618083E09142
:100D2000A301F091A401808188608083E091A301F8
:100D3000F091A401808180688083E091A301F0910B
:100D4000A40180818F7D808381E291E00E94E50291
:100D5000809153028C3008F050C089E00E948700D7
:100D600080915302282F30E0F901EE0FFF1FE20FB0
:100D7000F31FE25DFD4F9081907C9960908310920B
:100D80005402109255022CE0622F0E940D08829F9F
:100D9000B001112430E020E0AB01420F531FFA01F3
:100DA000EE0FFF1FE40FF51FE25DFD4F908196FDF2
:100DB00016C02F5F3F4F2C30310571F781110FC0E6
:100DC0001092800082E08093810010928500109242
:100DD0008400B19A80916F00826080936F00E091EF
:100DE00053028E2F90E0FC01EE0FFF1FE80FF91F5A
:100DF000E25DFD4F80818064808390E080E00E940E
:100E0000A60082E00E949C03C0E0D0E00CE510E068
:100E100081E991E00E948001892B09F490C081E969
:100E200091E00E945E0180939001682F81E991E03A
:100E30000E94C2016EE171E081E991E00E94D60258
:100E4000809190018F3609F064C08CE291E00E949D
:100E5000E5020E94940361E471E086E592E00E945D
:100E6000D602E0916902E23088F5E150F0E0EA5AFA
:100E7000FD4F848980680E948E036EE471E086E5F0
:100E800092E00E94D6026CE271E080E090E00E9465
:100E9000A00210928F0110928E01C0908E01D0900E
:100EA0008F018DE5C816D1049CF4C6010E94A600EE
:100EB00064E170E080E090E00E94A00284E0C80E4F
:100EC000D11CD0928F01C0928E01E7CFE1E0CECF4E
:100ED00068E873E180E090E00E94A00210938F0127
:100EE00000938E01C0908E01D0908F01D7FC23C05B
:100EF000C6010E94A60064E170E080E090E00E94DC
:100F0000A00284E0C81AD108D0928F01C0928E014D
:100F1000E9CF8CE591E00E94E5020E94940364E72A
:100F200071E086E592E00E94D60260ED77E080E015
:100F300090E00E94A0020E949403F09290012097FA
:100F400009F466CF0E948C01882309F461CF0E94C6
:100F500000005ECF052E97FB1EF400940E94C1078F
:100F600057FD07D00E94DC0707FC03D04EF40C9419
:100F7000C10750954095309521953F4F4F4F5F4F9A
:100F8000089590958095709561957F4F8F4F9F4FF5
:100F900008950E94FE07A59F900DB49F900DA49FF9
:100FA000800D911D11240895B7FF0C94C9070E946C
:100FB000C907821B930B0895A1E21A2EAA1BBB1B23
:100FC000FD010DC0AA1FBB1FEE1FFF1FA217B30715
:100FD000E407F50720F0A21BB30BE40BF50B661F2B
:100FE000771F881F991F1A9469F7609570958095EF
:100FF00090959B01AC01BD01CF010895A29FB00166
:10100000B39FC001A39F700D811D1124911DB29F3C
:10101000700D811D1124911D0895991B79E004C064
:10102000991F961708F0961B881F7A95C9F7809527
:101030000895EE0FFF1F0590F491E02D0994F894A8
:02104000FFCFE0
:1010420000000000C20122014F010F0280015E0177
:1010520072010000000039042201D302D2020D0AFB
:101062000044544858582074657374006F70656E5C
:101072006E696E672074686520646F6F722E2E2E03
:101082000057656C636F6D652053697221004F7064
:10109200656E6E696E6720646F6F7200556E6B6E5F
:1010A2006F776E20706572736F6E2064657465630E
:1010B20074656400556E6B6E6F776E207065727327
:0410C2006F6E21002C
:00000001FF
